{
  "contractName": "Reserve",
  "abi": [
    {
      "inputs": [
        {
          "internalType": "address",
          "name": "_stakingToken",
          "type": "address"
        },
        {
          "internalType": "address",
          "name": "_rewardsToken",
          "type": "address"
        }
      ],
      "stateMutability": "nonpayable",
      "type": "constructor"
    },
    {
      "anonymous": false,
      "inputs": [
        {
          "indexed": false,
          "internalType": "uint256",
          "name": "paid",
          "type": "uint256"
        },
        {
          "indexed": false,
          "internalType": "uint256",
          "name": "recieved",
          "type": "uint256"
        }
      ],
      "name": "Redeem",
      "type": "event"
    },
    {
      "inputs": [],
      "name": "rewardsToken",
      "outputs": [
        {
          "internalType": "contract IERC20",
          "name": "",
          "type": "address"
        }
      ],
      "stateMutability": "view",
      "type": "function",
      "constant": true
    },
    {
      "inputs": [],
      "name": "stakingToken",
      "outputs": [
        {
          "internalType": "contract IERC20",
          "name": "",
          "type": "address"
        }
      ],
      "stateMutability": "view",
      "type": "function",
      "constant": true
    },
    {
      "inputs": [
        {
          "internalType": "uint256",
          "name": "_amount",
          "type": "uint256"
        }
      ],
      "name": "redeem",
      "outputs": [],
      "stateMutability": "nonpayable",
      "type": "function"
    }
  ],
  "bytecode": "0x608060405234801561001057600080fd5b50604051610676380380610676833981810160405281019061003291906100cf565b81600160006101000a81548173ffffffffffffffffffffffffffffffffffffffff021916908373ffffffffffffffffffffffffffffffffffffffff160217905550806000806101000a81548173ffffffffffffffffffffffffffffffffffffffff021916908373ffffffffffffffffffffffffffffffffffffffff1602179055505050610154565b6000815190506100c98161013d565b92915050565b600080604083850312156100e257600080fd5b60006100f0858286016100ba565b9250506020610101858286016100ba565b9150509250929050565b60006101168261011d565b9050919050565b600073ffffffffffffffffffffffffffffffffffffffff82169050919050565b6101468161010b565b811461015157600080fd5b50565b610513806101636000396000f3fe608060405234801561001057600080fd5b50600436106100415760003560e01c806372f702f314610046578063d1af0c7d14610064578063db006a7514610082575b600080fd5b61004e61009e565b60405161005b919061039f565b60405180910390f35b61006c6100c4565b604051610079919061039f565b60405180910390f35b61009c600480360381019061009791906102e9565b6100e8565b005b600160009054906101000a900473ffffffffffffffffffffffffffffffffffffffff1681565b60008054906101000a900473ffffffffffffffffffffffffffffffffffffffff1681565b60008054906101000a900473ffffffffffffffffffffffffffffffffffffffff1673ffffffffffffffffffffffffffffffffffffffff166323b872dd3330846040518463ffffffff1660e01b81526004016101459392919061033f565b602060405180830381600087803b15801561015f57600080fd5b505af1158015610173573d6000803e3d6000fd5b505050506040513d601f19601f8201168201806040525081019061019791906102c0565b506000600a826101a791906103e3565b9050600160009054906101000a900473ffffffffffffffffffffffffffffffffffffffff1673ffffffffffffffffffffffffffffffffffffffff1663a9059cbb33836040518363ffffffff1660e01b8152600401610206929190610376565b602060405180830381600087803b15801561022057600080fd5b505af1158015610234573d6000803e3d6000fd5b505050506040513d601f19601f8201168201806040525081019061025891906102c0565b507fe3829d5463fae0f748d927f86f762044188c9ce53d91a394eb93e98354cc3092828260405161028a9291906103ba565b60405180910390a15050565b6000815190506102a5816104af565b92915050565b6000813590506102ba816104c6565b92915050565b6000602082840312156102d257600080fd5b60006102e084828501610296565b91505092915050565b6000602082840312156102fb57600080fd5b6000610309848285016102ab565b91505092915050565b61031b81610414565b82525050565b61032a8161045c565b82525050565b61033981610452565b82525050565b60006060820190506103546000830186610312565b6103616020830185610312565b61036e6040830184610330565b949350505050565b600060408201905061038b6000830185610312565b6103986020830184610330565b9392505050565b60006020820190506103b46000830184610321565b92915050565b60006040820190506103cf6000830185610330565b6103dc6020830184610330565b9392505050565b60006103ee82610452565b91506103f983610452565b92508261040957610408610480565b5b828204905092915050565b600061041f82610432565b9050919050565b60008115159050919050565b600073ffffffffffffffffffffffffffffffffffffffff82169050919050565b6000819050919050565b60006104678261046e565b9050919050565b600061047982610432565b9050919050565b7f4e487b7100000000000000000000000000000000000000000000000000000000600052601260045260246000fd5b6104b881610426565b81146104c357600080fd5b50565b6104cf81610452565b81146104da57600080fd5b5056fea2646970667358221220ed568d347560cce02011a9ea50b56db802f42cb654f8510dee5bf1de4512c1ee64736f6c63430008040033",
  "immutableReferences": {},
  "source": "// SPDX-License-Identifier: MIT\npragma solidity ^0.8;\n// import \"../node_modules/@openzeppelin/contracts/token/ERC20/ERC20.sol\";\n\nimport \"../node_modules/@openzeppelin/contracts/utils/math/SafeMath.sol\";\n\ncontract Reserve {\n    using SafeMath for uint256;\n    IERC20 public rewardsToken;\n    IERC20 public stakingToken;\n\n    constructor(address _stakingToken, address _rewardsToken) {\n        stakingToken = IERC20(_stakingToken);\n        rewardsToken = IERC20(_rewardsToken);\n    \n    }\n    event Redeem(uint256 paid, uint256 recieved);\n\n  // ADDED\n  // still need to prevent anything other than gpudu from \n  //working with this\n    // Redeem\n    function redeem(uint _amount) external {\n      // transfer staking token  *invoker* to *this contract*\n        rewardsToken.transferFrom(msg.sender, address(this), _amount);\n        uint256 redeemAmount = _amount / 10;\n        stakingToken.transfer(msg.sender, redeemAmount);\n        emit Redeem(_amount, redeemAmount);\n    }\n  \n}\n\ninterface IERC20 {\n    function totalSupply() external view returns (uint);\n\n    function balanceOf(address account) external view returns (uint);\n\n    function transfer(address recipient, uint amount) external returns (bool);\n\n    function allowance(address owner, address spender) external view returns (uint);\n\n    function approve(address spender, uint amount) external returns (bool);\n\n    function transferFrom(\n        address sender,\n        address recipient,\n        uint amount\n    ) external returns (bool);\n\n    event Transfer(address indexed from, address indexed to, uint value);\n    event Approval(address indexed owner, address indexed spender, uint value);\n}",
  "sourcePath": "/home/ncal/Documents/pudu/contracts/contracts/Reserve.sol",
  "compiler": {
    "name": "solc",
    "version": "0.8.4+commit.c7e474f2.Emscripten.clang"
  },
  "schemaVersion": "3.4.4",
  "updatedAt": "2022-01-05T04:43:00.995Z",
  "networkType": "ethereum",
  "devdoc": {
    "kind": "dev",
    "methods": {},
    "version": 1
  },
  "userdoc": {
    "kind": "user",
    "methods": {},
    "version": 1
  }
}