{
  "contractName": "StakingRewards",
  "abi": [
    {
      "inputs": [
        {
          "internalType": "address",
          "name": "_stakingToken",
          "type": "address"
        },
        {
          "internalType": "address",
          "name": "_rewardsToken",
          "type": "address"
        }
      ],
      "stateMutability": "nonpayable",
      "type": "constructor"
    },
    {
      "anonymous": false,
      "inputs": [
        {
          "indexed": true,
          "internalType": "address",
          "name": "from",
          "type": "address"
        },
        {
          "indexed": false,
          "internalType": "uint256",
          "name": "earnedMath",
          "type": "uint256"
        }
      ],
      "name": "Earned",
      "type": "event"
    },
    {
      "anonymous": false,
      "inputs": [
        {
          "indexed": false,
          "internalType": "uint256",
          "name": "val",
          "type": "uint256"
        }
      ],
      "name": "WithDraw",
      "type": "event"
    },
    {
      "inputs": [
        {
          "internalType": "address",
          "name": "",
          "type": "address"
        }
      ],
      "name": "_balances",
      "outputs": [
        {
          "internalType": "uint256",
          "name": "",
          "type": "uint256"
        }
      ],
      "stateMutability": "view",
      "type": "function",
      "constant": true
    },
    {
      "inputs": [],
      "name": "_totalSupply",
      "outputs": [
        {
          "internalType": "uint256",
          "name": "",
          "type": "uint256"
        }
      ],
      "stateMutability": "view",
      "type": "function",
      "constant": true
    },
    {
      "inputs": [],
      "name": "lastUpdateTime",
      "outputs": [
        {
          "internalType": "uint256",
          "name": "",
          "type": "uint256"
        }
      ],
      "stateMutability": "view",
      "type": "function",
      "constant": true
    },
    {
      "inputs": [],
      "name": "rewardPerTokenStored",
      "outputs": [
        {
          "internalType": "uint256",
          "name": "",
          "type": "uint256"
        }
      ],
      "stateMutability": "view",
      "type": "function",
      "constant": true
    },
    {
      "inputs": [],
      "name": "rewardRate",
      "outputs": [
        {
          "internalType": "uint256",
          "name": "",
          "type": "uint256"
        }
      ],
      "stateMutability": "view",
      "type": "function",
      "constant": true
    },
    {
      "inputs": [
        {
          "internalType": "address",
          "name": "",
          "type": "address"
        }
      ],
      "name": "rewards",
      "outputs": [
        {
          "internalType": "uint256",
          "name": "",
          "type": "uint256"
        }
      ],
      "stateMutability": "view",
      "type": "function",
      "constant": true
    },
    {
      "inputs": [],
      "name": "rewardsToken",
      "outputs": [
        {
          "internalType": "contract IERC20",
          "name": "",
          "type": "address"
        }
      ],
      "stateMutability": "view",
      "type": "function",
      "constant": true
    },
    {
      "inputs": [],
      "name": "stakingToken",
      "outputs": [
        {
          "internalType": "contract IERC20",
          "name": "",
          "type": "address"
        }
      ],
      "stateMutability": "view",
      "type": "function",
      "constant": true
    },
    {
      "inputs": [
        {
          "internalType": "address",
          "name": "",
          "type": "address"
        }
      ],
      "name": "userRewardPerTokenPaid",
      "outputs": [
        {
          "internalType": "uint256",
          "name": "",
          "type": "uint256"
        }
      ],
      "stateMutability": "view",
      "type": "function",
      "constant": true
    },
    {
      "inputs": [],
      "name": "rewardPerToken",
      "outputs": [
        {
          "internalType": "uint256",
          "name": "",
          "type": "uint256"
        }
      ],
      "stateMutability": "view",
      "type": "function",
      "constant": true
    },
    {
      "inputs": [
        {
          "internalType": "address",
          "name": "account",
          "type": "address"
        }
      ],
      "name": "earned",
      "outputs": [
        {
          "internalType": "uint256",
          "name": "",
          "type": "uint256"
        }
      ],
      "stateMutability": "view",
      "type": "function",
      "constant": true
    },
    {
      "inputs": [
        {
          "internalType": "uint256",
          "name": "_amount",
          "type": "uint256"
        }
      ],
      "name": "stake",
      "outputs": [],
      "stateMutability": "nonpayable",
      "type": "function"
    },
    {
      "inputs": [
        {
          "internalType": "uint256",
          "name": "_amount",
          "type": "uint256"
        }
      ],
      "name": "withdraw",
      "outputs": [],
      "stateMutability": "nonpayable",
      "type": "function"
    },
    {
      "inputs": [
        {
          "internalType": "uint256",
          "name": "_amount",
          "type": "uint256"
        }
      ],
      "name": "updateRewardRate",
      "outputs": [],
      "stateMutability": "nonpayable",
      "type": "function"
    },
    {
      "inputs": [],
      "name": "getReward",
      "outputs": [],
      "stateMutability": "nonpayable",
      "type": "function"
    },
    {
      "inputs": [],
      "name": "getRewardRate",
      "outputs": [
        {
          "internalType": "uint256",
          "name": "",
          "type": "uint256"
        }
      ],
      "stateMutability": "view",
      "type": "function",
      "constant": true
    },
    {
      "inputs": [],
      "name": "getStaked",
      "outputs": [
        {
          "internalType": "uint256",
          "name": "",
          "type": "uint256"
        }
      ],
      "stateMutability": "view",
      "type": "function",
      "constant": true
    },
    {
      "inputs": [],
      "name": "getTotalSupply",
      "outputs": [
        {
          "internalType": "uint256",
          "name": "",
          "type": "uint256"
        }
      ],
      "stateMutability": "view",
      "type": "function",
      "constant": true
    }
  ],
  "bytecode": "0x6080604052662386f26fc100006002553480156200001c57600080fd5b506040516200112b3803806200112b8339818101604052810190620000429190620000e2565b81600160006101000a81548173ffffffffffffffffffffffffffffffffffffffff021916908373ffffffffffffffffffffffffffffffffffffffff160217905550806000806101000a81548173ffffffffffffffffffffffffffffffffffffffff021916908373ffffffffffffffffffffffffffffffffffffffff160217905550505062000171565b600081519050620000dc8162000157565b92915050565b60008060408385031215620000f657600080fd5b60006200010685828601620000cb565b92505060206200011985828601620000cb565b9150509250929050565b6000620001308262000137565b9050919050565b600073ffffffffffffffffffffffffffffffffffffffff82169050919050565b620001628162000123565b81146200016e57600080fd5b50565b610faa80620001816000396000f3fe608060405234801561001057600080fd5b50600436106101155760003560e01c80638b876347116100a2578063c59abf9f11610071578063c59abf9f146102ce578063c8f33c91146102ec578063cd3daf9d1461030a578063d1af0c7d14610328578063df136d651461034657610115565b80638b876347146102485780639ef3a26114610278578063a694fc3a14610294578063c4e41b22146102b057610115565b80633eaaf86b116100e95780633eaaf86b146101a05780636ebcf607146101be57806372f702f3146101ee5780637b0a47ee1461020c5780637e1a37861461022a57610115565b80628cc2621461011a5780630700037d1461014a5780632e1a7d4d1461017a5780633d18b91214610196575b600080fd5b610134600480360381019061012f9190610c12565b610364565b6040516101419190610d35565b60405180910390f35b610164600480360381019061015f9190610c12565b610466565b6040516101719190610d35565b60405180910390f35b610194600480360381019061018f9190610c64565b61047e565b005b61019e6106bf565b005b6101a86108ac565b6040516101b59190610d35565b60405180910390f35b6101d860048036038101906101d39190610c12565b6108b2565b6040516101e59190610d35565b60405180910390f35b6101f66108ca565b6040516102039190610d1a565b60405180910390f35b6102146108f0565b6040516102219190610d35565b60405180910390f35b6102326108f6565b60405161023f9190610d35565b60405180910390f35b610262600480360381019061025d9190610c12565b610900565b60405161026f9190610d35565b60405180910390f35b610292600480360381019061028d9190610c64565b610918565b005b6102ae60048036038101906102a99190610c64565b610922565b005b6102b8610aef565b6040516102c59190610d35565b60405180910390f35b6102d6610af9565b6040516102e39190610d35565b60405180910390f35b6102f4610b40565b6040516103019190610d35565b60405180910390f35b610312610b46565b60405161031f9190610d35565b60405180910390f35b610330610ba9565b60405161033d9190610d1a565b60405180910390f35b61034e610bcd565b60405161035b9190610d35565b60405180910390f35b6000600660008373ffffffffffffffffffffffffffffffffffffffff1673ffffffffffffffffffffffffffffffffffffffff16815260200190815260200160002054670de0b6b3a7640000600560008573ffffffffffffffffffffffffffffffffffffffff1673ffffffffffffffffffffffffffffffffffffffff168152602001908152602001600020546103f7610b46565b6104019190610e31565b600860008673ffffffffffffffffffffffffffffffffffffffff1673ffffffffffffffffffffffffffffffffffffffff1681526020019081526020016000205461044b9190610dd7565b6104559190610da6565b61045f9190610d50565b9050919050565b60066020528060005260406000206000915090505481565b33610487610b46565b6004819055504260038190555061049d81610364565b600660008373ffffffffffffffffffffffffffffffffffffffff1673ffffffffffffffffffffffffffffffffffffffff16815260200190815260200160002081905550600454600560008373ffffffffffffffffffffffffffffffffffffffff1673ffffffffffffffffffffffffffffffffffffffff1681526020019081526020016000208190555081600760008282546105389190610e31565b9250508190555081600860003373ffffffffffffffffffffffffffffffffffffffff1673ffffffffffffffffffffffffffffffffffffffff168152602001908152602001600020600082825461058e9190610e31565b92505081905550600160009054906101000a900473ffffffffffffffffffffffffffffffffffffffff1673ffffffffffffffffffffffffffffffffffffffff1663a9059cbb33846040518363ffffffff1660e01b81526004016105f2929190610cf1565b602060405180830381600087803b15801561060c57600080fd5b505af1158015610620573d6000803e3d6000fd5b505050506040513d601f19601f820116820180604052508101906106449190610c3b565b507fcbe159bbfa02836af5ba6d951958879a5d0b207331524c51ef4a58c95421e312600860003373ffffffffffffffffffffffffffffffffffffffff1673ffffffffffffffffffffffffffffffffffffffff168152602001908152602001600020546040516106b39190610d35565b60405180910390a15050565b336106c8610b46565b600481905550426003819055506106de81610364565b600660008373ffffffffffffffffffffffffffffffffffffffff1673ffffffffffffffffffffffffffffffffffffffff16815260200190815260200160002081905550600454600560008373ffffffffffffffffffffffffffffffffffffffff1673ffffffffffffffffffffffffffffffffffffffff168152602001908152602001600020819055506000600660003373ffffffffffffffffffffffffffffffffffffffff1673ffffffffffffffffffffffffffffffffffffffff16815260200190815260200160002054905060008111156108a8576000600660003373ffffffffffffffffffffffffffffffffffffffff1673ffffffffffffffffffffffffffffffffffffffff1681526020019081526020016000208190555060008054906101000a900473ffffffffffffffffffffffffffffffffffffffff1673ffffffffffffffffffffffffffffffffffffffff1663a9059cbb33836040518363ffffffff1660e01b8152600401610854929190610cf1565b602060405180830381600087803b15801561086e57600080fd5b505af1158015610882573d6000803e3d6000fd5b505050506040513d601f19601f820116820180604052508101906108a69190610c3b565b505b5050565b60075481565b60086020528060005260406000206000915090505481565b600160009054906101000a900473ffffffffffffffffffffffffffffffffffffffff1681565b60025481565b6000600254905090565b60056020528060005260406000206000915090505481565b8060028190555050565b3361092b610b46565b6004819055504260038190555061094181610364565b600660008373ffffffffffffffffffffffffffffffffffffffff1673ffffffffffffffffffffffffffffffffffffffff16815260200190815260200160002081905550600454600560008373ffffffffffffffffffffffffffffffffffffffff1673ffffffffffffffffffffffffffffffffffffffff1681526020019081526020016000208190555081600760008282546109dc9190610d50565b9250508190555081600860003373ffffffffffffffffffffffffffffffffffffffff1673ffffffffffffffffffffffffffffffffffffffff1681526020019081526020016000206000828254610a329190610d50565b92505081905550600160009054906101000a900473ffffffffffffffffffffffffffffffffffffffff1673ffffffffffffffffffffffffffffffffffffffff166323b872dd3330856040518463ffffffff1660e01b8152600401610a9893929190610cba565b602060405180830381600087803b158015610ab257600080fd5b505af1158015610ac6573d6000803e3d6000fd5b505050506040513d601f19601f82011682018060405250810190610aea9190610c3b565b505050565b6000600754905090565b6000600860003373ffffffffffffffffffffffffffffffffffffffff1673ffffffffffffffffffffffffffffffffffffffff16815260200190815260200160002054905090565b60035481565b6000806007541415610b5b5760009050610ba6565b600754670de0b6b3a764000060025460035442610b789190610e31565b610b829190610dd7565b610b8c9190610dd7565b610b969190610da6565b600454610ba39190610d50565b90505b90565b60008054906101000a900473ffffffffffffffffffffffffffffffffffffffff1681565b60045481565b600081359050610be281610f2f565b92915050565b600081519050610bf781610f46565b92915050565b600081359050610c0c81610f5d565b92915050565b600060208284031215610c2457600080fd5b6000610c3284828501610bd3565b91505092915050565b600060208284031215610c4d57600080fd5b6000610c5b84828501610be8565b91505092915050565b600060208284031215610c7657600080fd5b6000610c8484828501610bfd565b91505092915050565b610c9681610e65565b82525050565b610ca581610ead565b82525050565b610cb481610ea3565b82525050565b6000606082019050610ccf6000830186610c8d565b610cdc6020830185610c8d565b610ce96040830184610cab565b949350505050565b6000604082019050610d066000830185610c8d565b610d136020830184610cab565b9392505050565b6000602082019050610d2f6000830184610c9c565b92915050565b6000602082019050610d4a6000830184610cab565b92915050565b6000610d5b82610ea3565b9150610d6683610ea3565b9250827fffffffffffffffffffffffffffffffffffffffffffffffffffffffffffffffff03821115610d9b57610d9a610ed1565b5b828201905092915050565b6000610db182610ea3565b9150610dbc83610ea3565b925082610dcc57610dcb610f00565b5b828204905092915050565b6000610de282610ea3565b9150610ded83610ea3565b9250817fffffffffffffffffffffffffffffffffffffffffffffffffffffffffffffffff0483118215151615610e2657610e25610ed1565b5b828202905092915050565b6000610e3c82610ea3565b9150610e4783610ea3565b925082821015610e5a57610e59610ed1565b5b828203905092915050565b6000610e7082610e83565b9050919050565b60008115159050919050565b600073ffffffffffffffffffffffffffffffffffffffff82169050919050565b6000819050919050565b6000610eb882610ebf565b9050919050565b6000610eca82610e83565b9050919050565b7f4e487b7100000000000000000000000000000000000000000000000000000000600052601160045260246000fd5b7f4e487b7100000000000000000000000000000000000000000000000000000000600052601260045260246000fd5b610f3881610e65565b8114610f4357600080fd5b50565b610f4f81610e77565b8114610f5a57600080fd5b50565b610f6681610ea3565b8114610f7157600080fd5b5056fea2646970667358221220149e03a26a1178f2894a2af1f95aa290ea0c7a4dbbfc02020f9574186d14965e64736f6c63430008040033",
  "immutableReferences": {},
  "source": "// SPDX-License-Identifier: MIT\npragma solidity ^0.8;\n\nimport \"../node_modules/@openzeppelin/contracts/utils/math/SafeMath.sol\";\n\ncontract StakingRewards {\n    using SafeMath for uint256;\n    // using SafeERC20 for IERC20;\n    IERC20 public rewardsToken;\n    IERC20 public stakingToken;\n\n    // added higher reward rate uint public rewardRate = 100;\n    uint public rewardRate = 10000000000000000;\n    uint public lastUpdateTime;\n    uint public rewardPerTokenStored;\n\n    mapping(address => uint) public userRewardPerTokenPaid;\n    mapping(address => uint) public rewards;\n\n    // added public, uint private _totalSupply;\n    uint public _totalSupply;\n    //added public, mapping(address => uint) private _balances;\n    mapping(address => uint) public _balances;\n\n    constructor(address _stakingToken, address _rewardsToken) {\n        stakingToken = IERC20(_stakingToken);\n        rewardsToken = IERC20(_rewardsToken);\n    }\n\n    event Earned(address indexed from, uint256 earnedMath);\n    event WithDraw(uint256 val);\n\n    //\n    function rewardPerToken() public view returns (uint) {\n        if (_totalSupply == 0) {\n            return 0;\n        }\n        return\n            rewardPerTokenStored +\n            (((block.timestamp - lastUpdateTime) * rewardRate * 1e18) / _totalSupply);\n    }\n\n    // RETURNS THE AMOUNT OF REWARDS TOKENS EARNED\n    function earned(address account) public view returns (uint) {\n        return\n            ((_balances[account] *\n                (rewardPerToken() - userRewardPerTokenPaid[account])) / 1e18) +\n            rewards[account];\n    }\n\n    modifier updateReward(address account) {\n        rewardPerTokenStored = rewardPerToken();\n        lastUpdateTime = block.timestamp;\n        rewards[account] = earned(account);\n        userRewardPerTokenPaid[account] = rewardPerTokenStored;\n        _;\n    }\n\n    // STAKE\n    function stake(uint _amount) external updateReward(msg.sender) {\n        _totalSupply += _amount;\n        _balances[msg.sender] += _amount;\n      // transfer staking token  *invoker* to *this contract*\n        stakingToken.transferFrom(msg.sender, address(this), _amount);\n    }\n\n    // WITHDRAW STAKE\n    function withdraw(uint _amount) external updateReward(msg.sender) {\n        _totalSupply -= _amount;\n        _balances[msg.sender] -= _amount;\n        stakingToken.transfer(msg.sender, _amount);\n        emit WithDraw(_balances[msg.sender]);\n    }\n\n    function updateRewardRate (uint _amount) external {\n        // make this an owner only func\n        rewardRate = _amount;\n    }\n\n    // GET REWARD //\n    function getReward() external updateReward(msg.sender) {\n      uint reward = rewards[msg.sender];\n\n        if (reward > 0) {\n            rewards[msg.sender] = 0;\n            rewardsToken.transfer(msg.sender, reward);\n        }\n    }\n\n        // added: need a function that returns total staked balance _balances (simple)\n    function getRewardRate() public view returns (uint) {\n        return \n          rewardRate;\n    }\n\n    // added: need a function that returns total staked balance _balances (simple)\n    function getStaked() public view returns (uint) {\n        return \n          _balances[msg.sender];\n    }\n\n    // added: need a function that returns total supply aka _totalSupply (simple)\n    function getTotalSupply() public view returns (uint) {\n        return \n          _totalSupply;\n    }\n}\n\ninterface IERC20 {\n    function totalSupply() external view returns (uint);\n\n    function balanceOf(address account) external view returns (uint);\n\n    function transfer(address recipient, uint amount) external returns (bool);\n\n    function allowance(address owner, address spender) external view returns (uint);\n\n    function approve(address spender, uint amount) external returns (bool);\n\n    function transferFrom(\n        address sender,\n        address recipient,\n        uint amount\n    ) external returns (bool);\n\n    event Transfer(address indexed from, address indexed to, uint value);\n    event Approval(address indexed owner, address indexed spender, uint value);\n}",
  "sourcePath": "/home/ncal/Documents/pudu/contracts/contracts/StakingRewards.sol",
  "compiler": {
    "name": "solc",
    "version": "0.8.4+commit.c7e474f2.Emscripten.clang"
  },
  "schemaVersion": "3.4.4",
  "updatedAt": "2022-01-05T04:43:00.991Z",
  "networkType": "ethereum",
  "devdoc": {
    "kind": "dev",
    "methods": {},
    "version": 1
  },
  "userdoc": {
    "kind": "user",
    "methods": {},
    "version": 1
  }
}